:100000000C942A000C9447000C9447000C94470071
:100010000C9447000C9447000C9447000C94470044
:100020000C9447000C9447000C9447000C94470034
:100030000C9447000C9447000C9447000C94470024
:100040000C9447000C9447000C9447000C94470014
:100050000C94470011241FBECFE5D8E0DEBFCDBF12
:1000600011E0A0E6B0E0ECEBFFE002C005900D92DD
:10007000A837B107D9F721E0A8E7B1E001C01D9288
:10008000AC3AB207E1F70E9406050C94DC070C9429
:100090000000109278011092790187E080938E0120
:1000A00010928F0180E00E94F50420E030E0F90119
:1000B000E858FE4F938382832E5F3F4F24313105F2
:1000C000B1F780918E010E94F50420E030E0F90143
:1000D000E257FE4F938382832E5F3F4F24313105D9
:1000E000B1F70895EF92FF920F931F93CF93DF9391
:1000F000C8E7D1E0098110E088810E94F504000F73
:10010000111FF801E658FE4F91838083898190E0AA
:1001100001963AE0E32EF12CB7010E946F07898324
:100120000F8910E08E890E94F504000F111FF8015D
:10013000E057FE4F918380838F8990E00196B7014D
:100140000E946F078F8B80E0DF91CF911F910F91FD
:10015000FF90EF90089596E1899FD001112420E04F
:1001600030E060E070E0CB01FD01E20FF31FE858E2
:10017000FE4F42815381640F751F811D911D2E5FBB
:100180003F4F2431310581F72AE030E040E050E074
:100190000E948307C90108950E9449000E947200CD
:1001A00081E00E94AB009093A9018093A80180E0B8
:1001B0000E94AB009093AB018093AA012091A8010B
:1001C0003091A9013093A7012093A6019093A50136
:1001D0008093A4010895813061F028F0823099F075
:1001E0008330F9F0089561E088E00E94270660E01E
:1001F00005C060E088E00E94270661E089E00E9477
:10020000270660E017C060E088E00E94270660E0F3
:1002100089E00E94270660E08BE00E94270661E0EB
:100220000DC060E088E00E94270660E089E00E943F
:10023000270661E08BE00E94270660E08AE00C94CC
:1002400027060F931F93CF93DF938C0184E5809350
:100250007300C0E0809173008D3301F1C031F0F480
:100260000E945303809373008033A0F38A3328F0F5
:10027000833481F7DFEFDC0F06C0D1E0DC0FF8013B
:10028000EC0FF11D8083F801ED0FF11D10820E942B
:100290008104C8010E949804CD2FDCCFDF91CF915B
:1002A0001F910F910895CF93DF93CDB7DEB760977D
:1002B0000FB6F894DEBF0FBECDBF809161008130D4
:1002C000D9F480E00E94E2040E94810465E070E0BD
:1002D00080E090E00E948D0485E790E00E94980401
:1002E00060E070E081E090E00E948D048BE790E098
:1002F0000E949804109261000E945303809373003F
:100300008D3319F50E9481048BE890E00E949804D7
:100310001A821982FE0133968EE0DF011D928A95C2
:10032000E9F7CE0101960E94210163E670E0CE015B
:1003300001960E94D307892B41F480E00E94D004EB
:1003400081E0809361001092740060960FB6F8947B
:10035000DEBF0FBECDBFDF91CF910895CF93DF9366
:10036000CDB7DEB760970FB6F894DEBF0FBECDBF36
:100370000E9481048AE990E00E94980460E070E0A5
:1003800081E090E00E948D048BEA90E00E94980446
:100390001A821982FE0133968EE0DF011D928A9542
:1003A000E9F7CE0101960E94210163E670E0CE01DB
:1003B00001960E94D307892B71F50E9481048BEB73
:1003C00090E00E94980483E690E00E9421010E9440
:1003D000810465E070E080E090E00E948D048EEC86
:1003E00090E00E94980460E070E081E090E00E945C
:1003F0008D0483ED90E00E94980484E5809373005F
:1004000080917300843519F40E945303F7CF81E083
:100410008093740009C00E94810487EE90E00E94DE
:10042000980483E00E94EB0060960FB6F894DEBF5C
:100430000FBECDBFDF91CF910895809162008130D2
:1004400091F40E9481048DEE90E00E94980460E097
:1004500070E081E090E00E948D0485EF90E00E94C2
:100460009804109262000E945303809373008133BA
:1004700019F0823329F0089581E08093740003C05D
:100480000E94AE0181E0809362000895CF93DF93D4
:100490002091AA013091AB018091A4019091A50116
:1004A0002817390781F42091A8013091A901809182
:1004B000A6019091A7012817390729F480916100BE
:1004C000813009F053C0109261000E94810483E0E2
:1004D00091E00E9498048091AA019091AB01CAE03A
:1004E000D0E0BE010E945B0780E090E00E94AB0478
:1004F0008EE290E00E948B048091AA019091AB0162
:10050000BE010E945B07BC0180E090E00E94AB044A
:100510008AE091E00E94980460E070E081E090E061
:100520000E948D048DE091E00E9498048091A801C2
:100530009091A90162E370E00E945B0780E090E087
:100540000E94AB0485E191E00E9498048091AA0189
:100550009091AB019093A5018093A4018091A80193
:100560009091A9019093A7018093A601DF91CF916B
:1005700008950E94530380937300833431F41092E2
:10058000740081E080936100089580E008950E94E6
:1005900046028091AA019091AB01853F914030F0D5
:1005A00082E08093740081E0809361000C94B90232
:1005B0000E94810480916000813089F488E191E09B
:1005C0000E94980460E070E081E090E00E948D0459
:1005D0008EE191E00E9498041092600003C081E0D7
:1005E000809360002FEF82E597E02150804090409B
:1005F000E1F700C000008091A8019091A901863F19
:10060000994030F083E08093740081E08093610032
:100610008091AA019091AB01823C914028F481E045
:1006200080937400809361000C94B9020E94720060
:1006300080E00E94AB009093AB018093AA0181E01F
:100640000E94AB009093A9018093A8010895809126
:100650006100813021F4809174000E94EB000E94BF
:10066000160380917400813041F028F0823039F017
:10067000833039F008950C941D020C94C7020C9439
:10068000D8020C94530161E08CE00E94270661E0DF
:100690008DE00E94270661E08EE00E94270661E05F
:1006A0008FE00C942706AF92BF92CF92DF92EF9229
:1006B000FF920F931F93CF93DF939BE6C92E91E098
:1006C000D92EC7E5D1E024E5F22EF601E1906F01C5
:1006D00060E08E2D0E94270687E6A82E81E0B82EC6
:1006E00000E010E0F50181915F010E94A6068111F2
:1006F00013C0FFEF21EE84E0F15020408040E1F78D
:1007000000C00000EFE1FEE43197F1F700C0000007
:10071000FE01E00FF11FF0800F5F1F4F0430110545
:1007200009F761E08E2D0E9427062496F1E0C73676
:10073000DF0759F68F2DDF91CF911F910F91FF9019
:10074000EF90DF90CF90BF90AF900895CF93C82FD8
:1007500060E081E00E9427066C2F661F6627661FF7
:1007600086E00E942706C6FB662760F985E00E94A6
:100770002706C5FB662760F984E00E942706C4FBB4
:10078000662760F983E00E94270661E082E00E940C
:1007900027068FEC97E00197F1F700C0000060E0BA
:1007A00082E00E9427068FEC97E00197F1F700C0E6
:1007B0000000C3FB662760F986E00E942706C2FBA3
:1007C000662760F985E00E942706C1FB662760F96D
:1007D00084E00E9427066C2F617083E00E94270648
:1007E00061E082E00E9427068FEC97E00197F1F725
:1007F00000C0000060E082E00E9427068FEC97E0D6
:100800000197F1F700C00000CF910895CF93C82F52
:1008100061E081E00E9427066C2F661F6627661F35
:1008200086E00E942706C6FB662760F985E00E94E5
:100830002706C5FB662760F984E00E942706C4FBF3
:10084000662760F983E00E94270661E082E00E944B
:1008500027068FEC97E00197F1F700C0000060E0F9
:1008600082E00E9427068FEC97E00197F1F700C025
:100870000000C3FB662760F986E00E942706C2FBE2
:10088000662760F985E00E942706C1FB662760F9AC
:1008900084E00E9427066C2F617083E00E94270687
:1008A00061E082E00E9427068FEC97E00197F1F764
:1008B00000C0000060E082E00E9427068FEC97E015
:1008C0000197F1F700C00000CF9108958FE59AEEEF
:1008D0000197F1F700C0000082E00E94A60388E2C1
:1008E0000E94A6038CE00E94A60381E00E94A6035A
:1008F0008FEC97E00197F1F700C0000086E00C94C0
:10090000A60381E00E94A6038FE99FE00197F1F71B
:1009100000C0000008950C940604811102C080E814
:1009200003C0813021F480EC860F0C94A603089557
:100930000F931F93CF938C01C0E0F801EC0FF11DD2
:100940008081882321F00E940604CF5FF6CFCF91EB
:100950001F910F9108950F931F93CF93DF93CDB7FE
:10096000DEB760970FB6F894DEBF0FBECDBF00E1D3
:1009700010E020E030E0AE014F5F5F4F0E94FF06C5
:10098000CE0101960E94980460960FB6F894DEBFDF
:100990000FBECDBFDF91CF911F910F9108950895A4
:1009A000CF93DF93C82FD0E0CC0FDD1FC15BDE4FAC
:1009B00060E088810E94270660E08981DF91CF9105
:1009C0000C942706CF93DF93C82FD0E0CC0FDD1F08
:1009D000C15BDE4F60E089810E94270661E088816B
:1009E000DF91CF910C94270608950E943D059C014C
:1009F000A8E8B3E10E94C407DC01CB012AE0B69568
:100A0000A795979587952A95D1F708950E9449054E
:100A10000E94CF040E9466040E94430366E081E0C6
:100A20000E9428050E94F4040E9449000E94CC0004
:100A30008FE691E00E9498042FEF84E39CE0215020
:100A400080409040E1F700C000000E942703FDCFE6
:100A5000813031F038F0823039F43E9A3F9A04C048
:100A60003E9A01C03E983F9886B1887F86B986B18C
:100A70006770682B66B9379A089597B1907E97B9D9
:100A800097B1892B87B9369A3699FECF84B195B143
:100A90000895EFE2F1E040E081E090E05191242FF1
:100AA0002770342F369536953695513009F443C06A
:100AB00020F0523009F482C0C5C0323001F1333029
:100AC00061F1313071F05AB3BC0102C0660F771F7B
:100AD0002A95E2F79B01352F322B3ABB3BB3209589
:100AE0003DC057B3BC0102C0660F771F2A95E2F7DD
:100AF0009B01352F322B37BB38B320953EC054B302
:100B0000BC0102C0660F771F2A95E2F79B01352FC3
:100B1000322B34BB35B320953FC051B3BC0102C06A
:100B2000660F771F2A95E2F79B01352F322B31BBD9
:100B300032B3209541C0323011F1333081F1313080
:100B400079F05AB3BC0102C0660F771F2A95E2F70D
:100B50009B012095352F32233ABB3BB3232342C060
:100B600057B3BC0102C0660F771F2A95E2F79B01BD
:100B70002095352F322337BB38B3232343C054B3DA
:100B8000BC0102C0660F771F2A95E2F79B012095F2
:100B9000352F322334BB35B3232325BB53C051B388
:100BA000BC0102C0660F771F2A95E2F79B012095D2
:100BB000352F322331BB32B3232343C0323021F1EE
:100BC000333089F1313081F05AB3BC0102C0660F75
:100BD000771F2A95E2F79B01362F309535233ABBD4
:100BE0003BB3232B2BBB2EC057B3BC0102C0660FF7
:100BF000771F2A95E2F79B01362F3095352337BBB7
:100C000038B3232B28BB1EC054B3BC0102C0660FEF
:100C1000771F2A95E2F79B01362F3095352334BB99
:100C200035B3232BBACF51B3BC0102C0660F771F77
:100C30002A95E2F79B01362F3095352331BB32B32D
:100C4000232B22BB4F5F403209F028CF0895982F05
:100C500097708695869586956130C1F5813091F0C3
:100C600028F08230D9F0833029F108954BB321E088
:100C700030E0B90102C0660F771F9A95E2F7CB0109
:100C8000842B38C048B321E030E0B90102C0660FC0
:100C9000771F9A95E2F7CB01842B3AC045B321E048
:100CA00030E0B90102C0660F771F9A95E2F7CB01D9
:100CB000842B3CC042B321E030E0B90102C0660F92
:100CC000771F9A95E2F7CB01842B3EC08130A1F0CB
:100CD00028F08230F9F0833059F108954BB321E0C8
:100CE00030E0B90102C0660F771F9A95E2F7CB0199
:100CF000809584238BBB089548B321E030E0B9018F
:100D000002C0660F771F9A95E2F7CB018095842386
:100D100088BB089545B321E030E0B90102C0660FF9
:100D2000771F9A95E2F7CB018095842385BB0895C0
:100D300042B321E030E0B90102C0660F771F9A95F7
:100D4000E2F7CB018095842382BB0895282F27707A
:100D5000869586958695813049F030F0823041F055
:100D6000833079F480B305C089B303C086B301C072
:100D700083B390E002C0959587952A95E2F781703C
:100D8000089580E00895FC0160E070E0CB012191BE
:100D9000222329F06F5F7F4F8F4F9F4FF8CF089529
:100DA000CF92DF92EF92FF92CF93DF93EC010E94FC
:100DB000C3066B017C0122E030E040E050E00E947D
:100DC000A507FE01EC0DFD1D80E090E0DC0182171F
:100DD0009307A407B50744F46881729179936083FF
:100DE0000196A11DB11DF3CF61E070E080E090E0BD
:100DF000DF91CF91FF90EF90DF90CF9008954F92C9
:100E00005F926F927F928F929F92AF92BF92CF929A
:100E1000DF92EF92FF920F931F93CF93DF93EA013C
:100E200028013901611571058105910521F420E33F
:100E3000288351E001C050E040E030E020E0C52EC2
:100E4000D42EE32EF22E2AE0822E912CA12CB12C4E
:100E5000C414D504E604F704B8F0FE01EC0DFD1D42
:100E60001082CE01DF91CF911F910F91FF90EF90F3
:100E7000DF90CF90BF90AF909F908F907F906F90BA
:100E80005F904F900C94D006611571058105910516
:100E900021F38E010C0D1D1DA50194010E948307F5
:100EA000605DF8016083B901CA01FFEFCF1ADF0A64
:100EB000EF0AFF0ACDCFAA1BBB1B51E107C0AA1F37
:100EC000BB1FA617B70710F0A61BB70B881F991FEB
:100ED0005A95A9F780959095BC01CD01089597FB8F
:100EE000072E16F4009407D077FD09D00E945B0707
:100EF00007FC05D03EF4909581959F4F089570951D
:100F000061957F4F0895A1E21A2EAA1BBB1BFD011C
:100F10000DC0AA1FBB1FEE1FFF1FA217B307E407D8
:100F2000F50720F0A21BB30BE40BF50B661F771F30
:100F3000881F991F1A9469F7609570958095909510
:100F40009B01AC01BD01CF010895052E97FB1EF456
:100F500000940E94BC0757FD07D00E94830707FC3E
:100F600003D04EF40C94BC075095409530952195D4
:100F70003F4F4F4F5F4F08959095809570956195C5
:100F80007F4F8F4F9F4F0895A29FB001B39FC00125
:100F9000A39F700D811D1124911DB29F700D811DA5
:100FA0001124911D0895FB01DC018D9101908019A0
:0C0FB0000110D9F3990B0895F894FFCFBD
:100FBC00010101313131310000000000000000005E
:100FCC00000000540146495245210070726573734C
:100FDC00203D20746F2073746F7000656E746572A1
:100FEC002074686520706173730067657420746881
:100FFC0065206F6C64207061737300696620646F88
:10100C006E65207072657373203D00456E74657259
:10101C0020746865206E6577207061737300446F6F
:10102C006E65005072657373203D20746F20636F82
:10103C006E74696E7565004572726F7200312D7237
:10104C006573657400322D6368616E67652070612D
:10105C0073730074656D703D2000206300736D6FB9
:10106C006B653D2000202500416C65727400486959
:10107C0067682074656D70657261747572650001C6
:10108C000000000000000100000000000000000053
:10109C000000000000000002020202020202021420
:1010AC0013191A1B1C1D1E3738392F3435362A31AB
:1010BC0032332D43303D2B1A1B1C1D0C0D0E0F779C
:0810CC00656C636F6D650000A7
:00000001FF
